:020000040000FA
:08000000803102288731FD2F39
:100F520051011308F8390638930040018E017E01D1
:100F6200CE010F30400193007E014F14CF14B92FF0
:100F720040018E18BD2FBE2FD82F0530F1000F3043
:100F8200F000F130890BC32FF00BC32FF10BC32FED
:100F920000004001180C890C0139013EF000F00DEF
:100FA200F00D18087006FB3970069800D82F0E183D
:100FB200DB2FDC2FB92F0530F1000F30F000F130BC
:100FC200890BE12FF00BE12FF10BE12F0000400123
:100FD200180CF000F00C700C0139013EF100F10D1B
:100FE200F10DF10D18087106F73971069800B92F45
:0E0FF200B92FB92F8031022840018731A92F75
:020000040001F9
:0A000E008C3FFD3F9F3FFF3FFF3F87
:00000001FF
