:020000040000FA
:10000000803102288731E72FF601F31F08280928DD
:100010001128F209F309F20A0319F30AF601F60AA4
:100020001128F11F142815281B28F009F109F00ADE
:100030000319F10A1B2870087104031920282128CC
:100040005028F501F50A2E280130F035F10D890B05
:1000500025280130F4007408F5072E28F11F3128F7
:10006000322824283428342871087302031D3A28C2
:1000700070087202031C3D283E2843287008F202D3
:100080007108F33B43280130F136F00C890B44280A
:100090000130F502031D4D284E28342850285028E1
:1000A00076080319542855285B28F209F309F20A47
:1000B0000319F30A5B287308F1007208F000602846
:1000C00008004101BC00BA01BB01400157084101D1
:1000D000D000400156084101CF00400155084101C0
:1000E000CE00400154084101CD0050084001B80045
:1000F00041014F084001B70041014E084001B600E0
:1001000041014D084001B5000030BC000030BB008B
:100110000030BA000030B90090312D208031031832
:1001200092289328AD2801304101BA000030BB006D
:100130005008F3004F08F2004E08F1004D08F0009F
:1001400088310A20803173084101D0007208CF0045
:100150007108CE007008CD00AD284101D301D40153
:10016000420167084101C100420166084101C00027
:100170003A083B04031DBD28BE28C42840016E1D5B
:10018000C228C328EB28C42841013A083B04031DB8
:10019000CA28CB28D0282B30A4000030A500D528B1
:1001A0002D30A4000030A500D52824084001D90036
:1001B00041015308A03E86000130870040015908E4
:1001C000810001304101D3070030D43DFF30C0072A
:1001D000FF30C13DEB2841015008F3004F08F20009
:1001E0004E08F1004D08F0009D31B32580317003B9
:1001F0007104031DFC28FD28642940015808BF3EF6
:10020000D900FF3003180030DA0000305A021A30EB
:1002100003195902031C0D290F2901301029003040
:10022000DB00DC015B084101A60040015C084101E4
:10023000A7002B2940015808D900DA015908F0001D
:100240005A08F1009A316822803171084101A700F3
:100250007008A6002B292608270403193029312904
:100260003B291630F000A030F1005308A03E9A312F
:10027000E722803146291E30F000A030F100410114
:100280005308A03E9A31E72280314629FD304101D2
:10029000C007FF30C13DA0304001D9005908A4007B
:1002A000410141084001A600410140084001A5006C
:1002B00041013C089C319724803140012508D5003C
:1002C0002408D400E62FE62F41015008F3004F0820
:1002D000F2004E08F1004D08F0009D31B325803149
:1002E00070087104031D75297629DD29400158081D
:1002F000BF3ED900FF3003180030DA0000305A0248
:100300001A3003195902031C8629882901308929CA
:100310000030DB00DC015B084101A80040015C0803
:100320004101A900A42940015808D900DA0159085F
:10033000F0005A08F1009A316822803171084101B9
:10034000A9007008A800A429280829040319A929CC
:10035000AA29B4291A30F000A030F1005308A03EB9
:100360009A31E7228031BF292230F000A030F1001D
:1003700041015308A03E9A31E7228031BF29FD3068
:100380004101C007FF30C13DA0304001D9005908EC
:10039000A400410141084001A6004101400840017C
:1003A000A50041013C089C3197248031400125087B
:1003B000D5002408D400E62FE62F3F304101D800B5
:1003C0008030D7000030D6000030D500D101D201F6
:1003D0005008F3004F08F2004E08F1004D08F000FD
:1003E0000030F7000030F6000030F5000030F40077
:1003F0009C31472480310318FE29FF29C92A322A5B
:10040000322A41304001A3002030A2000030A10078
:100410000030A000410158084001A70041015708E1
:100420004001A600410156084001A50041015508C0
:100430004001A400953195258031400123084101F8
:10044000D800400122084101D700400121084101A4
:10045000D600400120084101D5000130D10700300D
:10046000D23D322A410150084001B80041014F08F5
:100470004001B70041014E084001B60041014D085E
:100480004001B5004130A3002030A2000030A1009F
:100490000030A000410158084001A7004101570861
:1004A0004001A600410156084001A5004101550840
:1004B0004001A40095319525803140012308BC00FE
:1004C0002208BB002108BA002008B90090312D2075
:1004D000803103186C2A6D2A012AA02AA02A4130F3
:1004E0004001A9002030A8000030A7000030A6007D
:1004F000410158084001AD00410157084001AC00DE
:10050000410156084001AB00410155084001AA00D5
:10051000883180208031400129084101D800400104
:1005200028084101D700400127084101D6004001B9
:1005300026084101D500FF30D107FF30D23DA02A67
:10054000410150084001B80041014F084001B70087
:1005500041014E084001B60041014D084001B5007F
:10056000410158084001BC00410157084001BB004F
:10057000410156084001BA00410155084001B90047
:1005800090312D208031031CC62AC72A6F2AC92A20
:10059000C92A40015808D900DA015908F6005A085A
:1005A000F7009B315B23803176084001DB005B085C
:1005B0004101C20042084001D90059084101BF0071
:1005C00067304206031DE52AE62A0C2B6E086F04ED
:1005D000031DEB2AEC2AF02A0130EE000030EF0078
:1005E0006F08803A4001D90080305902031DFB2A70
:1005F000013041016E020318FE2AFF2A052B063046
:100600004101BD000030BE001B2B41016F08BE0040
:100610006E08BD001B2B1B2BEF1B0F2B102B152B5C
:100620006F08BE006E08BD001B2B0630BD000030F9
:10063000BE001B2B1B2B67304206031D202B212BDA
:100640005A2B5208803A4001D9007F305902031DCD
:100650002C2BFC3041015102031C2F2B302B532B30
:1006600041013D08FF3E4001D900FF3041013E3DC0
:100670004001DA005A08803ADB0041015208803A12
:1006800040015B02031D482B410151084001590202
:10069000031C4B2B4C2B532B66304001D9005908BF
:1006A0004101BF005A2B65304001D9005908410172
:1006B000BF005A2B3E08B5003D08B4006730420623
:1006C000031D632B642B6F2B66303F06031D692BC4
:1006D0006A2B742BD21F6D2B6E2B742B6F2B01305A
:1006E000B4070030B53D742B66303F06031D792BEF
:1006F0007A2B952BD21F7D2B7E2B892B3F30D80058
:100700008030D7000030D6000030D500D101D201B2
:10071000892B6730420603198E2B8F2B952B51089E
:10072000B4075208B53D952B952BCB01CC01500851
:10073000C6004F08C5004E08C4004D08C300580845
:10074000A3005708A2005608A1005508A000762C67
:10075000410158084001A900410157084001A80083
:10076000410156084001A700410155084001A6007B
:10077000410146084001AD00410145084001AC007F
:10078000410144084001AB00410143084001AA0077
:1007900088318020803140012908C3002808C20028
:1007A0002708C1002608C00093312A238031400168
:1007B00043084101CA00400142084101C90040010B
:1007C00041084101C800400140084101C7004A08F2
:1007D000F3004908F2004808F1004708F0009E3194
:1007E0003626803171084101B9007008B8004A0806
:1007F0004001A700410149084001A6004101480805
:100800004001A500410147084001A40041015808EA
:100810004001A300410157084001A20041015608D0
:100820004001A100410155084001A00095319525E6
:10083000803140012308B8002208B7002108B60023
:100840002008B500410146084001BC0041014508AF
:100850004001BB00410144084001BA004101430886
:100860004001B9009A3181228031400138084101AC
:10087000C600400137084101C5004001360841016A
:10088000C400400135084101C30041304001A900C6
:100890002030A8000030A7000030A6004101580811
:1008A0004001AD00410157084001AC00410156082C
:1008B0004001AB00410155084001AA008831802069
:1008C0008031400129084101D80040012808410138
:1008D000D700400127084101D60040012608410108
:1008E000D5000130CB070030CC3D762C4C08803A47
:1008F0004001D90041013508803A40015902031DE9
:10090000842C410134084B02031C872C882CA82B13
:10091000892C40304001A300A030A2000030A1008B
:100920000030A000410158084001A70041015708CC
:100930004001A600410156084001A50041015508AB
:100940004001A400953195258031400123084101E3
:10095000CA00400122084101C900400121084101AB
:10096000C800400120084101C70046084001B80006
:10097000410145084001B700410144084001B6006B
:10098000410143084001B50041014A084001BC0053
:10099000410149084001BB00410148084001BA003B
:1009A000410147084001B90090312D2080310318E2
:1009B000DA2CDB2CE52C00304101CA000030C900E4
:1009C0000030C8000030C7000C2D41014608F3007C
:1009D0004508F2004408F1004308F0004A08F70017
:1009E0004908F6004808F5004708F4009C31472400
:1009F0008031031CFC2CFD2C0C2D41013818012DDD
:100A0000022D0C2D0030CA000030C9000030C80093
:100A10000030C7000C2D0C2D41014A08F300490895
:100A2000F2004808F1004708F0005008F7004F08AE
:100A3000F6004E08F5004D08F4008A315F2280313F
:100A400073084101C6007208C5007108C40070082F
:100A5000C3002308D8002208D7002108D6002008A8
:100A6000D50065303F060319362D372D3C2D520831
:100A7000B7005108B6003E2DB601B701B201B3016F
:100A8000B001B101CB01CC01902E410158084001C9
:100A9000A900410157084001A80041015608400142
:100AA000A700410155084001A60041014608400148
:100AB000AD00410145084001AC004101440840013E
:100AC000AB00410143084001AA00883180208031F9
:100AD00040012908C3002808C2002708C1002608D1
:100AE000C00093312A238031400143084101CA00EC
:100AF000400142084101C900400141084101C800CC
:100B0000400140084101C7004A08F3004908F200CB
:100B10004808F1004708F0009E3136268031710800
:100B20004101B9007008B80040016E1A982D992D46
:100B3000AF2D410138083904031D9F2DA02DAF2D85
:100B400067304206031DA52DA62DAF2DB71FA92D79
:100B5000AA2DAF2D0130B0070030B13D0D2E41015F
:100B600032083304031DB52DB62DEF2DB71FB92D57
:100B7000BA2DEF2D2E304001D90041015308A03E7F
:100B80008600013087004001590881000130410191
:100B9000D3070030D43DFF30C007FF30C13D0130E6
:100BA000B2000030B300EF2DEF2D30304001D900FE
:100BB00041015308A03E86000130870040015908DA
:100BC000810001304101D3070030D43DFF30C00720
:100BD000FF30C13DFF30B007FF30B13DEF2D300891
:100BE0003104031DF42DF52DD52DF62D3808303E9A
:100BF0004001D90041015308A03E86000130870022
:100C000040015908810001304101D3070030D43D33
:100C1000FF30C007FF30C13D0D2E4A084001A7003C
:100C2000410149084001A600410148084001A500D2
:100C3000410147084001A400410158084001A300B8
:100C4000410157084001A200410156084001A1009E
:100C5000410155084001A0009531952580314001A2
:100C60002308B8002208B7002108B6002008B50004
:100C7000410146084001BC00410145084001BB005C
:100C8000410144084001BA00410143084001B90054
:100C90009A3181228031400138084101C60040016B
:100CA00037084101C500400136084101C400400138
:100CB00035084101C30041304001A9002030A8009F
:100CC0000030A7000030A600410158084001AD00E7
:100CD000410157084001AC00410156084001AB00FA
:100CE000410155084001AA0088318020803140012F
:100CF00029084101D800400128084101D7004001DE
:100D000027084101D600400126084101D500FF30E7
:100D1000B607FF30B73D0130CB070030CC3D902EF9
:100D20004C08803A4001D90041013508803A400121
:100D30005902031D9E2E410134084B020318A12EB7
:100D4000A22EB42E41015408803A4001D9008030CF
:100D50005902031DAE2E4B3041015302031CB12E2C
:100D6000B22E452DB42EB42E410132083304031D9A
:100D7000BA2EBB2ED12E40016E1EBF2EC02ED12EFC
:100D80002E30D90041015308A03E86000130870073
:100D900040015908810001304101D3070030D43DA2
:100DA000D12E41015308A03E860001308700810109
:100DB00065303F06031DDD2EDE2ECE2F4F30CB00DB
:100DC0000030CC004B08A03E860001308700810136
:100DD000BA01BB01D21FED2EEE2EF82E0130BA0063
:100DE0000030BB00D109D209D10A0319D20AF82E6A
:100DF0000230BD000030BE00342FFF304101CB0770
:100E0000FF30CC3D0A30F0000030F1005208F30012
:100E10005108F2008031042080317008303E4001DA
:100E2000D90041014B08A03E8600013087004001F7
:100E3000590881000A30F0000030F10041015208E9
:100E4000F3005108F2008831172080317108410108
:100E5000D2007008D100FF30BD07FF30BE3DFF302B
:100E6000C007FF30C13D342F51085204031D392FF4
:100E70003A2FFD2E3E08803A4001D90080305902B9
:100E8000031D452F013041013D020318482F492F12
:100E9000FD2E4A2FFF304101CB07FF30CC3D3A08F1
:100EA0003B04031D542F552F5A2F2B30AA0000301E
:100EB000AB005F2F2D30AA000030AB005F2F2A0857
:100EC0004001D90041014B08A03E86000130870057
:100ED000400159088100FF304101C007FF30C13D8A
:100EE000FF30CB07FF30CC3D40015808BF3ED90052
:100EF000FF3003180030DA0000305A021A300319AC
:100F00005902031C842F862F0130872F0030DB000D
:100F1000DC015B084101AE0040015C084101AF000B
:100F2000A22F40015808D900DA015908F0005A08E8
:100F3000F1009A316822803171084101AF007008D8
:100F4000AE00A22F2E082F04031DA72FA82FAD2F10
:100F50006530AC000030AD00B22F4530AC00003041
:100F6000AD00B22F2C084001D90041014B08A03E32
:100F7000860001308700400159088100FF3041019F
:100F8000C007FF30C13D4B08A03EF0000130F1002A
:100F90005308A03E9A31E7228031CE2FA030400185
:100FA000D9005908A400410141084001A6004101AF
:100FB00040084001A50041013C089C319724803144
:100FC00040012508D5002408D400E62F0800400180
:100FD000EE01EF014101EE01EF015C3084000130D0
:100FE00085000C30883104208731A0308400013026
:100FF0008500503088310420873140019431192C0C
:101006000800640080010131890B0528003473084B
:1010160072047104700403191128122815288030EF
:10102600F306152816280800F601F11F1B281C28B0
:101036002428F009F109F00A0319F10AF601F60A63
:101046002428F31F272828283228F209F309F20A50
:101056000319F30A0130F4007408F6063228F70182
:10106600F80170087104031939283A286F28F50128
:10107600F50A47280130F035F10D890B3E2801307D
:10108600F4007408F5074728F11F4A284B283D2825
:101096004D284D280130F735F80D890B4E2871087B
:1010A6007302031D582870087202031C5B285C2813
:1010B60062287008F2027108F33B77146228013047
:1010C600F136F00C890B63280130F502031D6C28FC
:1010D6006D284D286F286F28760803197328742801
:1010E6007A28F709F809F70A0319F80A7A28780816
:1010F600F1007708F0007F28080040012D088039AC
:10110600AE002E08B7002D35AE002E08BE00AC1F6F
:101116008D288E2890283E1490283E08031994287E
:101126009528A6283E0A031D99289A28A328003048
:10113600AD000030AC000030AB000030AA00A328A0
:10114600AC17AD01AF280030AD000030AC00003068
:10115600AB000030AA00AF2829088039AE002E085F
:10116600B7062935AE002E08BF00A81FBB28BC282D
:10117600BE283F14BE283F080319C228C328D42816
:101186003F0A031DC728C828D1280030A90000300F
:10119600A8000030A7000030A600D128A817A90192
:1011A600DC280030A9000030A8000030A70000307D
:1011B600A6002908280427042604031DE328E4289A
:1011C600FE280030AD000030AC000030AB0000302F
:1011D600AA008030AC047F30AD043708AE002E087C
:1011E600AD042D08A9002C08A8002B08A7002A0882
:1011F600A6005E2A5E2A3E08031D02290329152938
:101206000030AD000030AC000030AB000030AA006A
:101216002D08A9002C08A8002B08A7002A08A6005C
:101226005E2A5E2A3F08AE00AF01AE09AF09AE0ADC
:101236000319AF0A3E082E07B0002F0803182F0A1D
:10124600B10030087F3EB8000030313DB9002D08AE
:10125600B6002C08B5002B08B4002A08B3000030ED
:10126600AD000030AC000030AB000030AA0000300A
:10127600BD000030BC000030BB000030BA00BF012A
:1012860086293F0803194829492965290130B335BC
:10129600B40DB50DB60D890B4A290130AA35AB0D33
:1012A600AC0DAD0D890B5129BD1F5A295B295D294E
:1012B6002A145D290130BA35BB0DBC0DBD0D890B55
:1012C6005E29652929083602031D73292808350277
:1012D600031D732927083402031D732926083302C8
:1012E600031C7629772981293D172608B30227088A
:1012F600B43B2808B53B2908B63B81290130AE002E
:101306002E08BF0786291A303F02031C8B298C2919
:1013160044298D29360835043404330403199429E5
:101326009529B1293A14B129B1290130AA35AB0D55
:10133600AC0DAD0D890B9929BD1FA229A329A5299D
:101346002A14A5290130BA35BB0DBC0DBD0D890B7C
:10135600A629FF30B807FF30B93DB129AC1FB42923
:10136600B5299829B629BF01BD1FBA29BB29DB2992
:10137600FF303A05AE00FF303B05AF00FF303C05BD
:10138600B0007F303D05B100310830042F042E0433
:101396000319CE29CF29D229BF01BF0ADB292A1C6E
:1013A600D529D629DB29BF01BF0ADB29DB29DB29A1
:1013B6003F080319DF29E0290A2A0130AA0700306D
:1013C600AB3D0030AC3D0030AD3D2D1CEB29EC298A
:1013D6000A2A2A08AE002B08AF002C08B0002D08F8
:1013E600B1000130B200B137B00CAF0CAE0CB20B8D
:1013F600F6293108AD003008AC002F08AB002E08E6
:10140600AA000130B8070030B93D0A2A0A2A39086D
:10141600803AAE0080302E02031D132AFF303802B8
:10142600031C162A172A242AFF304001B800003070
:10143600B9000030AD000030AC000030AB00003029
:10144600AA0040013908803AAE0080302E02031D02
:101456002E2A013038020318312A322A3E2A400148
:10146600B801B9010030AD000030AC000030AB006F
:101476000030AA00B70140013808AE002E08BE00B1
:101486003E1C462A472A492AAC174D2A7F30AE0011
:101496002E08AC053E36AE002E08AD003708AE006D
:1014A6002E08AD042D08A9002C08A8002B08A700BB
:1014B6002A08A6005E2A0800730880394001A000A9
:1014C6002008F8007335A0002008FA00F21F6C2AE5
:1014D6006D2A6F2A7A146F2A7A080319732A742AD6
:1014E600852A7A0A031D782A792A822A0030F3008F
:1014F6000030F2000030F1000030F000822AF217CE
:10150600F3018E2A0030F3000030F2000030F100C3
:101516000030F0008E2A77088039A0002008F900F4
:10152600790878060319982A992A9B2A78179B2AFC
:101536007735A0002008F900F61FA22AA32AA52ABB
:101546007914A52A79080319A92AAA2ABB2A790A8D
:10155600031DAE2AAF2AB82A0030F7000030F60085
:101566000030F5000030F400B82AF617F701C32A58
:101576000030F7000030F6000030F5000030F400CF
:101586007A0879020318C82AC92A0F2B781FCC2A91
:10159600CD2AD22A8030A0002008F806D22A7A085E
:1015A600A0002008FB007908A0002008FA007B08AC
:1015B600A0002008F9007008A0002008FB007408AD
:1015C600A0002008F0007B08A0002008F4007108A5
:1015D600A0002008FB007508A0002008F1007B0889
:1015E600A0002008F5007208A0002008FB0076087D
:1015F600A0002008F2007B08A0002008F60073086F
:10160600A0002008FB007708A0002008F3007B0854
:10161600A0002008F7000F2BFB017A08A000A1010B
:10162600A009A109A00A0319A10A79082007A200A6
:1016360021080318210AA3002308803AA400803059
:101646002402031D282B1A302202031C2B2B2C2BC1
:101656006A2B7308720471047004031D332B352B37
:101666000130362B00304001A0002008FB0000307E
:10167600F3000030F2000030F1000030F00079088D
:10168600A0002008FA00712B6A2B7B1C4B2B4C2BDD
:10169600532B7B3601384001A0002008FB00562B57
:1016A6000310FB0C562B701C592B5A2B5C2BFB176B
:1016B6005C2B01304001A000F337F20CF10CF00C6A
:1016C600A00B5F2B0130A0002008FA076A2B7908CF
:1016D6007A02031C6F2B702B482B712B781B742BF3
:1016E600752BB32B7A08031D792B7A2B842B0030AC
:1016F600F3000030F2000030F1000030F000D72C8B
:10170600D72C7408F0077508F13D7608F23D770886
:10171600F33D731C8F2B902B5B2C7B1C932B942BF4
:101726009B2B7B3601384001A0002008FB009E2B36
:101736000310FB0C9E2B701CA12BA22BA42BFB17BA
:10174600A42B01304001A000F337F20CF10CF00C91
:10175600A00BA72B0130A0002008FA075B2C5B2CFE
:101766007308803A4001A0007708803A2002031DE2
:10177600C62B76087202031DC62B75087102031D5F
:10178600C62B740870020318C92BCA2B162CFF30FF
:10179600A000FF30A100FF30A200FF30A3007408B4
:1017A600A4007508A5007608A6007708A7007009AA
:1017B600A8007109A9007209AA007309AB00A80A5A
:1017C6000319A90A0319AA0A0319AB0A2808A407C8
:1017D6002908A53D2A08A63D2B08A73D2408A007F1
:1017E6002508A13D2608A23D2708A33D2308F300AE
:1017F6002208F2002108F1002008F0008030A00045
:101806002008F806FB09FB0A7B08031D0B2C0C2C91
:101816001E2C0130F0070030F13D0030F23D003063
:10182600F33D1E2C1E2C7408F0027508F13B760859
:10183600F23B7708F33B7308720471047004031DCE
:10184600252C262C552C7B08031D2A2C2B2C552C9D
:101856000030F3000030F2000030F1000030F000FC
:10186600D72CD72C552C0130F035F10DF20DF30D98
:10187600890B372CFB1F402C412C422C70147B1CEF
:10188600452C462C492C0314FB0D4C2C0310FB0D48
:101896004C2C7A080319502C512C552C0130FA0285
:1018A600552C552CF21F582C592C362C5B2C5B2CA6
:1018B600F901FB1F5F2C602C722C7B087F39031902
:1018C600652C662C692CF901F90A722C701C6C2C9B
:1018D6006D2C722CF901F90A722C722C722C790873
:1018E6000319762C772CA72C0130F0070030F13D38
:1018F6000030F23D0030F33D731C822C832CA72C64
:1019060070084001A0007108A1007208A2007308C7
:10191600A3000130A400A337A20CA10CA00CA40BB9
:101926008E2C2308F3002208F2002108F10020087B
:10193600F0007A0A0319A02CA12CA72C0130A000D4
:101946002008FA07A72CA72C7A0A0319AB2CAC2C73
:10195600B22C7A08031DB02CB12CC22CB22C00304C
:10196600F3000030F2000030F1000030F0007A0899
:10197600031DBE2CBF2CC22CF801C22CC22C7A1C13
:10198600C52CC62CC82CF217CD2C7F304001A000E8
:101996002008F2057A364001A0002008F300F81F5F
:1019A600D52CD62CD72CF31708004101E7004001AF
:1019B6005D0886008701403FDF00413FE0005F0889
:1019C6008400600885001200253A031DEB2CEC2CE0
:1019D600D62F5D0886008701013081074131031843
:1019E600810A4201E601E7014001EE01EF01FF3005
:1019F6004101EE00FF30EF00D901DA01622D3C2DE6
:101A06006E145D0886008701013081074131031895
:101A1600810A622DEE145D08860087010130810778
:101A260041310318810A622D6E155D088600870113
:101A36000130810741310318810A622DEE155D08D8
:101A4600860087010130810741310318810A622D22
:101A56006E165D0886008701013081074131031843
:101A6600810A622D01304101D9000030DA00622D71
:101A7600622D40015D0886008701403FDF00413F3F
:101A8600E0005F088400600885000008E100E201CC
:101A96006208003A0319502D352D6108203A0319C2
:101AA600212D033A03192B2D083A0319172D063A4F
:101AB6000319032D1D3A03190D2D352D622D4101F4
:101AC60059085A040319682D692D3C2D40016E1CD6
:101AD6006D2D6E2D732DFD30EE05FF30EF05732D48
:101AE6005D0886008701403FDF00413FE0005F0858
:101AF60084006008850012002E3A031D832D842D74
:101B0600202E4101EE01EF0140015D0886008701AC
:101B16000130810741310318810A5D08860087017B
:101B2600403FDF00413FE0005F0884006008850019
:101B360012002A3A031DA02DA12DB82D5D0886009E
:101B460087010130810741310318810A5E0886004A
:101B56000130870001088400850102308107003FBB
:101B66004101EE00013FEF00202E40015D08860096
:101B76008701403FF600413FF700923140228C3109
:101B860077084101EF007608EE00D32D40015D088D
:101B9600860087010130810741310318810AD32D60
:101BA60040015D0886008701403FDF00413FE000BD
:101BB6005F088400600885000008D03EE100FF3021
:101BC60003180030E200003062020A300319610295
:101BD600031CEE2DF02D0130F12D0030E300E40161
:101BE60063084101DB00400164084101DC00172E57
:101BF60040015D0886008701403FDF00413FE0006D
:101C06005F088400600885000008E100E2016108C1
:101C1600F0006208F1009A314F228C3171084101BF
:101C2600DC007008DB00172E5B085C04031D1C2E0D
:101C36001D2EC92D202E202E202E40015D08860047
:101C46008701403FDF00413FE0005F0884006008F5
:101C560085000008E100E2016108F6006208F7006D
:101C66009B315B238C3176084001E3006308410118
:101C7600E30063080319402E412E862E40015D08BD
:101C860086008701403FDF00413FE00001305F07EB
:101C9600840060080318600A85000008E100E2017C
:101CA6006108F6006208F7009B315B238C317608E9
:101CB6004001E30063084101E40064080319642E4F
:101CC600652E862E40015D0886008701403FDF00B5
:101CD600413FE00002305F07840060080318600A95
:101CE60085000008E100E2016108F6006208F700DD
:101CF6009B315B238C3176084001E3006308410188
:101D0600E500862E862E66306306031D8B2E8C2EEE
:101D1600D92E40015D0886008701403FDF00413F24
:101D2600E0005F088400600885000008E1006108A3
:101D36004101E60040015D08860087010130810708
:101D460041310318810A5E088600013087000108C8
:101D56008400850104308107003F4101DF00013F17
:101D6600E000023FE100033FE20062084001D700C5
:101D7600410161084001D600410160084001D500DB
:101D860041015F084001D400410166084001DF00BF
:101D96005F08D80041016708803161208C3140011D
:101DA6005508DE005408DD00FF2FFF2F2630F00017
:101DB600A030F1000230F2000030F300E3309D3134
:101DC6004C258C3170087104031DEA2EEB2E9C2FD6
:101DD60040015D0886008701403FDF00413FE0008B
:101DE60001305F07840060080318600A8500000858
:101DF600E10061084101E60040015D0886008701B7
:101E0600403FDF00413FE0005F0884006008850036
:101E16000008BF3EE100FF3003180030E20000304A
:101E260062021A3003196102031C1A2F1C2F01309B
:101E36001D2F0030E300E40163084101DD0040018D
:101E460064084101DE00432F40015D0886008701DA
:101E5600403FDF00413FE0005F08840060088500E6
:101E66000008E100E2016108F0006208F1009A3121
:101E760068228C3171084101DE007008DD00432FB5
:101E86005D085E040319482F492F5D2F40015E0847
:101E9600860001308700010884008501043081072F
:101EA600003F4101DF00013FE000023FE100033F48
:101EB600E200712F40015E088600013087000108AC
:101EC6008400850104308107003F4101DF00013FA6
:101ED600E000023FE100033FE200712F40015D0890
:101EE600860087010230810741310318810A4101CA
:101EF60062084001D700410161084001D600410156
:101F060060084001D50041015F084001D40041014D
:101F160066084001DF005F08D8004101670880318C
:101F260061208C3140015508DE005408DD00FF2F8A
:101F3600FF2F40015D0886008701403FDF00413FDB
:101F4600E0005F088400600885001200253A031D42
:101F5600AD2FAE2FCA2F5D0886008701013081079D
:101F660041310318810A2530F0000030F1004101AB
:101F760067084001DF005F08F2009C31F1248C31D4
:101F860001304001DD000030DE00FF2FFF2F5D082D
:101F9600860087010130810741310318810ADD017E
:101FA600DE01FF2FFF2F5D0886008701403FDF001F
:101FB600413FE0005F088400600885000008E100FA
:101FC600E2016108F0006208F10041016708400182
:101FD600E3006308F2009C31F1248C3140015D0876
:101FE600860087010130810741310318810A0130DB
:0A1FF600DD000030DE00FF2F0800C0
:102004004001A300A101A2011B282008F900FA0144
:102014007908F0007A08F1007808FB007B08F200E8
:102024009C31F124903101304001A1070030A23DE0
:102034001B2821082307F90079088600013087004E
:102044000108FA007A08A0002008031D2A282B287A
:1020540007282C280800003040013505BD00003059
:102064003605BE0080303705BF007F303805C0001C
:1020740040083F043E043D04031D412842284A28E9
:102084000030B8000030B7000030B6000030B500B2
:1020940000303905BD0000303A05BE0080303B05F4
:1020A400BF007F303C05C00040083F043E043D04AF
:1020B400031D5D285E2867280030BC000030BB008B
:1020C4000030BA000030B9006728B81F6A286B28AE
:1020D40093280030BD000030BE000030BF008030C7
:1020E400C0003509C1003609C2003709C3003809E8
:1020F400C400C10A0319C20A0319C30A0319C40A92
:102104004108BD074208BE3D4308BF3D4408C03DE9
:102114004008B8003F08B7003E08B6003D08B500C7
:102124009328BC1F96289728BF280030BD00003094
:10213400BE000030BF008030C0003909C1003A0938
:10214400C2003B09C3003C09C400C10A0319C20A06
:102154000319C30A0319C40A4108BD074208BE3D56
:102164004308BF3D4408C03D4008BC003F08BB00D5
:102174003E08BA003D08B900BF288030B806803058
:10218400BC063C083802031DD1283B083702031D56
:10219400D1283A083602031DD1283908350203181C
:1021A400D428D528D7280310DA280314DA28DA2803
:1021B4000800400194131413941214129410141070
:1021C4008F130F138F120F128F100F103A30F3006A
:1021D4002330890BEB28F30BEB2800003A30F30093
:1021E4002330890BF328F30BF32800003A30F30073
:1021F4002330890BFB28F30BFB2800003A30F30053
:102204002330890B0329F30B032900003A30F30030
:102214002330890B0B29F30B0B2900003A30F30010
:102224002330890B1329F30B13290000F401F40A5A
:1022340004307402031C1F29202922294C294C290B
:1022440040018F130F138F160F168F100F108F135B
:102254000F138F160F168F140F100D30890B3029A2
:10226400000040018F130F138F160F168F100F10DD
:102274003A30F3002330890B3D29F30B3D2900004C
:102284000130F3007308F40704307402031C4B2973
:102294004C29222940018F130F138F160F128F1010
:1022A4000F108F130F138F160F128F140F100D3082
:1022B400890B5A29000040018F130F138F160F1238
:1022C4008F100F103A30F3002330890B6729F30B7A
:1022D400672900002830F3007308F40074089E3165
:1022E400CA2690311030F3007308F40074089E314C
:1022F400CA269031F401F40A74089E31CA2690313A
:102304000F30F3007308F40074089E31CA2690312C
:1023140008004001A0002008031991299229A62948
:10232400F91F95299629A6297609A2007709A30001
:102334007809A4007909A500A20A0319A30A0319BC
:10234400A40A0319A50AAE297908A5007808A400EF
:102354007708A3007608A200790878047704760445
:10236400031DB529B629C0290030F9000030F80052
:102374000030F7000030F6003F2A3F2A9630FA007A
:102384007A08A100D1290130FA007A08A1070130A6
:10239400A536A40CA30CA20C890BCA29D129FE30A2
:1023A4002505031DD629D729C529EC29EC29013097
:1023B400FA007A08A1070130A2070030A33D0030DB
:1023C400A43D0030A53D0130A536A40CA30CA20CFD
:1023D400890BE629FF302505031DF129F229D929A6
:1023E400FE29FE290130A1020130A235A30DA40D5E
:1023F400A50D890BF729FE29A41B012A022A092A03
:10240400023021020318072A082AF429092A21186C
:102414000C2A0D2A152AFF30A205FF30A3057F30B0
:10242400A405FF30A5050310A10C2108FA00FB0147
:10243400FC01FD011830FA35FB0DFC0DFD0D890B77
:102444001D2A7A08A2047B08A3047C08A4047D083E
:10245400A504200803192F2A302A362AF91F332A03
:10246400342A362AA517362A2508F9002408F80044
:102474002308F7002208F6003F2A08004001A701BC
:10248400A801A001A1014B2A0130F6070030F73D55
:102494004B2AA601A60A7608840077088500120054
:1024A400203A0319562A572A6D2A76088400770899
:1024B40085000008F73EF800FF3003180030F900EB
:1024C40000307902053003197802031C6A2A6B2A4A
:1024D4006D2AA6016D2A2608F800F9017808A200E1
:1024E4007908A300892A7608840077088500000803
:1024F400F800F9017808F0007908F1009A31C42253
:10250400923171084001A3007008A200892A2208B0
:102514002304031D8E2A8F2A462A9B2A9B2A0130D4
:102524004001A0000030A1000130F6070030F73D63
:10253400D82A76088400770885000008F800F90195
:102544007908003A0319A72AD82A78082B3A0319DC
:10255400962A063A0319912AD82AD82A760884009A
:10256400770885000008D03EF800FF3003180030DB
:10257400F900F809F909F80A0319F90A40012808C9
:10258400F1002708F0000A30F2000030F3009A311D
:10259400A2229231780870074001A7007908713DA2
:1025A400A8000130F6070030F73DD82A76088400E9
:1025B400770885000008D03EF800FF30031800308B
:1025C400F900003079020A3003197802031CEB2A5F
:1025D400ED2A0130EE2A0030FA00FB017A084001AE
:1025E400A4007B08A5000A2B7608840077088500E0
:1025F4000008F800F9017808F0007908F1009A3130
:102604004F22923171084001A5007008A4000A2BE2
:1026140024082504031D0F2B102BB02A112B20088E
:102624002104031D162B172B232B2709F800280937
:10263400F900F80A0319F90A7808F6007908F7008E
:10264400292B2808F7002708F600292B292B080036
:1026540042015F084001D30042015E084001D200FC
:1026640042015D084001D10042015C084001D000F4
:102674004308D3004208D2004108D1004008D000EA
:102684005008C4005108C5005208C6005308C700CA
:102694001730C736C60CC50CC40C890B4B2BFF3046
:1026A4004405C80000304505C9004808813ECE00F5
:1026B400FF30493DCF004F08803AC40080304402C7
:1026C400031D662B17304E02031C692B6A2B6B2BE0
:1026D400182C4001CF1B6F2B702BCE2BFF30C40066
:1026E400FF30C5007F30C6000030C7004E0A7E2B85
:1026F400C737C60CC50CC40C890B7A2B4708CD0010
:102704004608CC004508CB004408CA0050084A05D6
:10271400C40051084B05C50052084C05C6005308B7
:102724004D05C7004708460445044404031D9B2B7C
:102734009C2B9D2B182C5008C4005108C50052082E
:10274400C6005308C7001F30C736C60CC50CC40CDE
:10275400890BA62B47084604450444040319B32BEC
:10276400B42BBD2B4A08D0074B08D13D4C08D23DB1
:102774004D08D33DBD2B4A09C4004B09C5004C0983
:10278400C6004D09C7004408D0054508D1054608D0
:10279400D2054708D3050F2C5008C4005108C500C2
:1027A4005208C6005308C7001F30C736C60CC50CF4
:1027B400C40C890BD72B4708460445044404031D65
:1027C400E42BE52BEE2B0030D3000030D200003098
:1027D400D1000030D0000F2C5008C4005108C500AF
:1027E4005208C6005308C7000130C435C50DC60DD4
:1027F400C70D890BF72B4708460445044404031905
:10280400042C052C0F2CBF30D3008030D2000030B4
:10281400D1000030D0000F2C0F2C5308C3005208F5
:10282400C2005108C1005008C000182C0800510112
:102834001308F839063893007E01D901B81640010F
:1028440091167E014316400112164101931713138A
:1028540013161308F339043893001A12FC309A053E
:1028640005309E0016309E009031DB2094310130FB
:102874009E31CA2694310C309E31CA2694310530DB
:102884004201AA000F30A900F130890B472CA90B93
:10289400472CAA0B472C4E2C053041019E00D0300A
:1028A4004201A900C930890B552CA90B552C0032C3
:1028B400410113145D2C1318602C612C5D2C622CC7
:1028C4000D084201A900AA012908DA002A08DB0040
:1028D4005B08AA005A08A9002908AA00A901290826
:1028E400DA002A08DB0041010C0842015A07A9005A
:1028F4005B0803185B0AAA002908DA002A08DB002F
:1029040044304001A9007F30A800C030A700003047
:10291400A6000530F2000030F30042015B08F1002C
:102924005A08F0009A31A22294317008F600710816
:10293400F700890D893B8909F800F90001309131CC
:102944008B21943179084001AD007808AC007708F8
:10295400AB007608AA008831802094314001290810
:102964004201D700400128084201D600400127084F
:102974004201D500400126084201D4000B30410138
:10298400E800A030E900420157084101ED0042018E
:1029940056084101EC00420155084101EB00420197
:1029A40054084101EA003C309B31C3239431023086
:1029B4004201A9002908F3003C30AA002A08F400C7
:1029C40001309B31F82394310D304201AA002D309F
:1029D400A900D730890BEC2CA90BEC2CAA0BEC2CFE
:1029E4000032163041019E00D0304201A900C930A6
:1029F400890BFA2CA90BFA2C003241011314130889
:102A04000D084201A900AA012908D8002A08D90002
:102A14005B08AA005A08A9002908AA00A9012908E4
:102A2400D8002A08D90041010C0842015807A9001E
:102A340059080318590AAA002908D8002A08D900F5
:102A440044304001A9007F30A800C030A700003006
:102A5400A6000530F2000030F30042015908F100ED
:102A64005808F0009A31A22294317008F6007108D7
:102A7400F700890D893B8909F800F900013091318B
:102A84008B21943179084001AD007808AC007708B7
:102A9400AB007608AA0088318020943140012908CF
:102AA4004201CF00400128084201CE00400127081E
:102AB4004201CD00400126084201CC000030410112
:102AC400E800A030E900420153084101ED00420151
:102AD40052084101EC00420151084101EB0042015E
:102AE40050084101EA002C309B31C3239431F30197
:102AF400F30A2C304201A9002908F40002309B316A
:102B0400F82394310D304201AA002D30A900D730AA
:102B1400890B8A2DA90B8A2DAA0B8A2D00324E2CE3
:102B24004E2C80310228400123088039F9007908AD
:102B3400A8002335F9007908AE00A21FA22DA32D09
:102B4400A52D2E14A52D2E080319A92DAA2DBA2DB5
:102B54002E0A031DAE2DAF2DB82D0030A30000307A
:102B6400A2000030A1000030A000B82DA217C32D90
:102B74000030A3000030A2000030A1000030A0000B
:102B8400C32D27088039F9007908A8062735F900EC
:102B94007908AD00A61FCF2DD02DD22D2D14D22D06
:102BA4002D080319D62DD72DE72D2D0A031DDB2D56
:102BB400DC2DE52D0030A7000030A6000030A50074
:102BC4000030A400E52DA617F02D0030A70000303A
:102BD400A6000030A5000030A400F02D2D08031934
:102BE400F42DF52DFB2D2E08031DF92DFA2D052EA0
:102BF400FB2D0030A3000030A2000030A100003003
:102C0400A000FF2FFF2F2008F9007908F000260804
:102C14009B310B23953171084001B4007008B30057
:102C24003308F900FA01FB01FC017C08AC007B08C5
:102C3400AB007A08AA007908A9003408F900FA015F
:102C4400FB01FC017C08B2007B08B1007A08B000EB
:102C54007908AF002108F9007908F00025089B31B4
:102C64000B23953171084001B4007008B300330898
:102C7400F900FA01FB01FC017908A9077A08AA3DC9
:102C84007B08AB3D7C08AC3D3408F900FA01FB013C
:102C9400FC017908AF077A08B03D7B08B13D7C0898
:102CA400B23D2208F9007908F00024089B310B2377
:102CB400953171084001B4007008B3003308F9007D
:102CC400FA01FB01FC017908A9077A08AA3D7B08EF
:102CD400AB3D7C08AC3D3408F900FA01FB01FC0172
:102CE4007908AF077A08B03D7B08B13D7C08B23D56
:102CF4000830A935AA0DAB0DAC0D890B7B2E21082C
:102D0400F9007908F00024089B310B2395317108F0
:102D14004001B4007008B3003308A9073408AA3D81
:102D24000030AB3DAC3D2008F9007908F0002508DF
:102D34009B310B23953171084001B4007008B30036
:102D44003308A9073408AA3D0030AB3DAC3D083038
:102D5400A935AA0DAB0DAC0D890BAA2E2008F900DC
:102D64007908F00024089B310B2395317108400148
:102D7400B4007008B3003308A9073408AA3D003032
:102D8400AB3DAC3D2108F9007908F00026089B31E1
:102D94000B23953171084001B4007008B300330867
:102DA400AF073408B03D0030B13DB23D2208F90010
:102DB4007908F00025089B310B23953171084001F7
:102DC400B4007008B3003308AF073408B03D0030D6
:102DD400B13DB23D2208F9007908F00026089B3184
:102DE4000B23953171084001B4007008B300330817
:102DF400F9003408FA00FB01FC010830F935FA0D3A
:102E0400FB0DFC0D890B002F7908AF077A08B03D44
:102E14007B08B13D7C08B23D2908F9002A08FA0074
:102E24002B08FB002C08FC001830FC36FB0CFA0CB9
:102E3400F90C890B172F7908AF077A08B03D7B0886
:102E4400B13D7C08B23D0830A935AA0DAB0DAC0DDF
:102E5400890B262F2E082D07F900FA01FA0D79089F
:102E6400823EB300FF307A3DB400512F0130AF35BC
:102E7400B00DB10DB20D890B392FAC1F422F432F6A
:102E8400452F2F14452F0130A935AA0DAB0DAC0DDC
:102E9400890B462FFF30B307FF30B43D512FB11FCC
:102EA400542F552F382F562FAD01AC1F5A2F5B2F9F
:102EB4007B2FFF302905F900FF302A05FA00FF3087
:102EC4002B05FB007F302C05FC007C087B047A0476
:102ED400790403196E2F6F2F722FAD01AD0A7B2F6A
:102EE4002F1C752F762F7B2FAD01AD0A7B2F7B2FE7
:102EF4007B2F2D0803197F2F802FAA2F0130AF07B6
:102F04000030B03D0030B13D0030B23D321C8B2F5B
:102F14008C2FAA2F2F08F9003008FA003108FB0083
:102F24003208FC000130FD00FC37FB0CFA0CF90CF4
:102F3400FD0B962F7C08B2007B08B1007A08B00024
:102F44007908AF000130B3070030B43DAA2FAA2F8F
:102F54003408803AF90080307902031DB32FFF3022
:102F64003302031CB62FB72FC12F7F304001B200AC
:102F74008030B1000030B0000030AF00F22F4001CB
:102F84003408803AF90080307902031DCB2F0130D8
:102F940033020318CE2FCF2FDA2F00304001B200B6
:102FA4000030B1000030B0000030AF00A801F22FB3
:102FB40040013308F9007908AE00FF30AF05FF3057
:102FC400B0057F30B1050030B2052E1CEA2FEB2F7F
:102FD400ED2FB117ED2F2E36F9007908B200F22F3C
:102FE4002808F9007908B2043208A3003108A200C5
:0C2FF4003008A1002F08A000FF2F0800EB
:10349E007008D03EF200FF30713DF3000030730231
:1034AE000A3003197202031C5D2A5F2A0130602A5A
:1034BE000030F400F5017408F0007508F100672A79
:1034CE0008007008BF3EF200FF30713DF30000307F
:1034DE0073021A3003197202031C762A782A0130FD
:1034EE00792A0030F400F5017408F0007508F10037
:1034FE00802A080080304001B8063C08F3003B08E3
:10350E00F2003A08F1003908F0003808F7003708E1
:10351E00F6003608F5003508F4008A315F229A313C
:10352E0073084001B8007208B7007108B600700841
:10353E00B500A12A0800F401F501A52A701CA82ADD
:10354E00A92AAD2A7208F4077308F53D0130F23549
:10355E00F30D890BAE2A0130F136F00C890BB32A2C
:10356E0070087104031DBC2ABD2AA52ABE2A75083F
:10357E00F1007408F000C32A0800F401F40A2030A8
:10358E00700671040319CC2ACD2ADE2A7008F73E84
:10359E00F200FF30713DF300003073020530031965
:1035AE007202031CDB2ADC2ADE2AF401DE2A7408EE
:1035BE00F200F3017208F0007308F100E62A080029
:1035CE00F7007108F5007008F4007708F200720831
:1035DE00F600F22AF22A7608860001308700F60AF3
:1035EE007508F3007408F200F40A0319F50A72085C
:1035FE008400730885000008C03F8908031D082B4E
:10360E00092BF22A0A2B0800F800F401F5017008C4
:10361E00F200F3017208F6007308F700162B781CFF
:10362E00192B1A2B1E2B7608F4077708F53D01305F
:10363E00F635F70D890B1F2B0310F80C7808031DB8
:10364E00292B2A2B162B2B2B7508F1007408F00052
:10365E00302B0800F7007708F2007208F6003C2BBA
:10366E000130F2007208F7073C2B77088600013014
:10367E0087000108031D442B452B372B462B76085C
:10368E00F2000130F300F209F309F20A0319F30A0A
:10369E007708F4000130F50072087407F000730823
:1036AE00753DF1005A2B08007608BF3EF800FF303A
:1036BE00773DF900003079021A3003197802031CA5
:1036CE00692B6B2B01306C2B0030FA00FB017A0852
:1036DE00FC007B08FD007F2B7708F1007608F000D8
:1036EE009A3168229B317108FD007008FC007F2B17
:1036FE007C087D040319842B852B8D2B20307604BA
:10370E00F60000307704F7008D2B8D2B080040015A
:10371E00EA006608EC006508EB004201E401E501F1
:10372E00AE2B6B304001E8006808DD006708E90049
:10373E006908DE006A088C31D8249B3140015D088F
:10374E004201E40740015E084201E53DAE2B400117
:10375E006B0884006C0885001200031DB72BB82B74
:10376E00982BB92B420165084001E600420164081E
:10377E004001E500C22B08004201A200EA304001E0
:10378E00ED006D084201A30022084001ED006D0816
:10379E004201A400A501A601A701A80141016908E3
:1037AE004001E600410168084001E5002330ED00CC
:1037BE006D08E70024309B318E239B314001660853
:1037CE004201A100400165084201A0002508220720
:1037DE004001ED006D088600013087008101F72B56
:1037EE000800F700142C7308803EF5007508F800E9
:1037FE002A2C7308C03EF5007508F8002A2C7308B1
:10380E00943EF5007508F8002A2C7308D43EF50096
:10381E007508F8002A2C2A2C2A2C7708F500F601B8
:10382E007608003A03191C2C2A2C7508013A031944
:10383E00FA2B033A0319002C013A0319062C073A06
:10384E0003190C2C2A2C78089E31CA269B313C2C4D
:10385E00740886000130870001089F3163279B3171
:10386E000130F5007508F4073C2C74088600013011
:10387E0087000108031D442C452C2F2C462C0800D4
:10388E0000307005F80000307105F90080307205C7
:10389E00FA007F307305FB007B087A047904780404
:1038AE00031D5A2C5B2C632C0030F3000030F20009
:1038BE000030F1000030F00000307405F8000030E8
:1038CE007505F90080307605FA007F307705FB002C
:1038DE007B087A0479047804031D762C772C7F2CD0
:1038EE000030F7000030F6000030F5000030F40034
:1038FE0077087306031D8D2C76087206031D8D2C1A
:10390E0075087106031D8D2C740870060319902C12
:10391E00912C932C0310962C0314962C962C0800A5
:10392E004001AB006E1C9C2C9D2CA62C2B08FC0081
:10393E007C08F8002408903102209C31A62C40010E
:10394E00A61BAA2CAB2CB02C2608AA002508A90071
:10395E00B22CA901AA01A701A801C72C2030F000A2
:10396E000030F10040012B08FC007C08F2009C3175
:10397E00F1249C3101304001A7070030A83DC72C2F
:10398E002808803AFC002A08803A7C02031DD12CBC
:10399E0029082702031CD42CD52CB52C40016E18F7
:1039AE00D92CDA2CE32C2B08FC007C08F800240818
:1039BE00903102209C31E32C400124089B313123AD
:1039CE009C31400129087007A4002A08713DA5000A
:1039DE00F02C080072080319F52CF62CFC2C72083A
:1039EE00031DFA2CFB2C012DFC2C700888310320B2
:1039FE009C314B2D7208033E860001308700160065
:103A0E00010403190B2D0C2D2C2D7208033E86007C
:103A1E0001308700403FF300413FF400720A8600F8
:103A2E0001308700403FF500413FF6007608803AAE
:103A3E00F7007408803A7702031D272D730875026C
:103A4E0003182A2D2B2D4B2D2C2D7008F3007208E8
:103A5E00860001308700720A84000130850000085C
:103A6E000107F40074088600013087007308810096
:103A7E00720A860001308700013081074131031838
:103A8E00810A4B2D4B2D4B2D0800F6007608F400C5
:103A9E007408F9007108F8007008F7000130F2029E
:103AAE000030F33B720A031D602D730A031D602D57
:103ABE00612D732DF001F101B22DB22D732D013058
:103ACE00F4007408F9070130F7070030F83D0130B3
:103ADE00F2020030F33B732D79088600870101084E
:103AEE0003197A2D7B2D9B2D77088400780885008D
:103AFE0012000319832D842D9B2D72087304031954
:103B0E00892D8A2D9B2D7708840078088500000862
:103B1E00F400790886008701010874060319982DB0
:103B2E00992D662D9B2D9B2D770884007808850096
:103B3E000008F400F501F409F509F40A0319F50A71
:103B4E0079088600870101087407F00075080318CC
:103B5E00750AF100B22D0800420163084001A5006C
:103B6E00420162084001A400420161084001A30025
:103B7E00420160084001A2007308A5007208A4006B
:103B8E007108A3007008A2002208F4002308F500B3
:103B9E002408F6002508F7001730F736F60CF50C5A
:103BAE00F40C890BD42DFF307405A0000030750580
:103BBE00A10020082104031DE52DE62D092E220863
:103BCE00F4002308F5002408F6002508F70001305C
:103BDE00F435F50DF60DF70D890BEF2D77087604FC
:103BEE0075047404031DFC2DFD2D022E0230F00011
:103BFE000030F100352E0330F0000030F100352E8C
:103C0E00352E352E200A2104031D0E2E0F2E302E9A
:103C1E002208F4002308F5002408F6002508F70012
:103C2E000930F435F50DF60DF70D890B182E7708C2
:103C3E007604750474040319252E272E0130282EC0
:103C4E000030F800F9017808F0007908F100352EFF
:103C5E00352E0430F0000030F100352E08007008CB
:103C6E00F4007108F5007208F6007308F7000310EF
:103C7E00760D770DF8007808FA007A08031D482EA5
:103C8E00492E532E0030F3000030F2000030F100C8
:103C9E000030F000C92EC92E7008F4007108F5002E
:103CAE007208F6007308F7001F30F736F60CF50CA5
:103CBE00F40C890B5C2E7408F8007808F900F217E2
:103CCE00FF30F005FF30F105FF30F2050030F3054F
:103CDE009630FA02FA1F742E752E982E7A08803AB4
:103CEE00973E03187B2E7C2E872E0030F30000307B
:103CFE00F2000030F1000030F000C92EC92E872EE0
:103D0E000130F336F20CF10CF00C890B882E0130D9
:103D1E00F4007408FA07031D952E962E872EB92EE1
:103D2E00B92E20307A02031C9D2E9E2EB22E00300C
:103D3E00F3000030F2000030F1000030F000C92E28
:103D4E00C92EB22E0130F035F10DF20DF30D890BA7
:103D5E00AA2E0130FA027A08031DB62EB72EA92E0E
:103D6E00B92EB92E79080319BD2EBE2EC92EF00913
:103D7E00F109F209F309F00A0319F10A0319F20A1B
:103D8E000319F30A0800F20040018F100F10720899
:103D9E00F0000730F036890BD12E70080139F10092
:103DAE00F10CF10C0F0871067F3971068F00720845
:103DBE00F0000630F036890BE12E70080139F10063
:103DCE00F10EF10DF10D0F087106BF3971068F005E
:103DDE007208F0000530F036890BF22E70080139AA
:103DEE00F100F10EF10D0F087106DF3971068F002B
:103DFE007208F0000430F036890B022F700801397A
:103E0E00F100F10E0F087106EF3971068F000330C5
:103E1E00890B0F2F000040018F140D30890B152FC9
:103E2E00000040018F107208F0000330F036890B4D
:103E3E001D2F70080139F100F10CF10C0F087106FD
:103E4E007F3971068F007208F0000230F036890B50
:103E5E002D2F70080139F100F10EF10DF10D0F0843
:103E6E007106BF3971068F0072360139F000F00EFF
:103E7E00F00D0F087006DF3970068F0072080139D9
:103E8E00F000F00E0F087006EF3970068F00033049
:103E9E00890B4F2F000040018F140D30890B552FC9
:103EAE00000040018F103A30F0002330890B5D2F57
:103EBE00F00B5D2F00000800F20040018F100F1470
:103ECE007208F0000730F036890B6A2F700801393E
:103EDE00F100F10CF10C0F0871067F3971068F009D
:103EEE007208F0000630F036890B7A2F700801390F
:103EFE00F100F10EF10DF10D0F087106BF397106CB
:103F0E008F007208F0000530F036890B8B2F700889
:103F1E000139F100F10EF10D0F087106DF3971064E
:103F2E008F007208F0000430F036890B9B2F70085A
:103F3E000139F100F10E0F087106EF3971068F008D
:103F4E000330890BA82F000040018F140D30890B10
:103F5E00AE2F000040018F107208F0000330F036D3
:103F6E00890BB62F70080139F100F10CF10C0F0816
:103F7E0071067F3971068F007208F0000230F0363C
:103F8E00890BC62F70080139F100F10EF10DF10DFC
:103F9E000F087106BF3971068F0072360139F000B5
:103FAE00F00EF00D0F087006DF3970068F007208E4
:103FBE000139F000F00E0F087006EF3970068F0011
:103FCE000330890BE82F000040018F140D30890B50
:103FDE00EE2F000040018F100D30890BF42F0000E2
:103FEE003A30F0002330890BFA2FF00BFA2F000035
:103FFE000800743465346D3470343D3425343034F7
:10400E002E3432346634003476346F346C34743477
:10401E003D34253430342E34323466340034493451
:10402E004E34463400344E3441344E340034693408
:10403E006E34663400346E3461346E3400346C3455
:04404E0066340034A0
:020000040001F9
:0A000E008C3FFD3F9F3FFF3FFF3F87
:00000001FF
