:020000040000FA
:10000000803102288731EE2FF401F40A2030700687
:10001000710403190C280D281E287008F73EF20001
:10002000FF30713DF3000030730205300319720296
:10003000031C1B281C281E28F4011E287408F2002B
:10004000F3017208F0007308F1002628080040014F
:10005000AB006D1C2C282D2836282B08FC007C08B2
:10006000F80024088E31B126803136284001A61BC5
:100070003A283B2840282608AA002508A90042283B
:10008000A901AA01A701A80157282030F0000030DB
:10009000F10040012B08FC007C08F2008F31AC27F6
:1000A000803101304001A7070030A83D57282808BB
:1000B000803AFC002A08803A7C02031D6128290846
:1000C0002702031C64286528452840016D1869280B
:1000D0006A2873282B08FC007C08F80024088E315D
:1000E000B12680317328400124088E318826803162
:1000F000400129087007A4002A08713DA500802846
:10010000080051011308F839063893007E01CE012A
:10011000D9018331562380310130813187218031EB
:100120000C308131872180310F308131872180313E
:1001300029304001E8009630E7007F30890B9E2887
:10014000E70B9E28E80B9E28A5284101D201D30188
:10015000003053020D3003195202031CB028B1289D
:10016000B328A528A5285208013E4001E7006708EA
:10017000F3000D30F4009030F50001308F315D2731
:10018000803115304001E8004B30E700BE30890B6C
:10019000C728E70BC728E80BC728000001308131CA
:1001A0008721803100304001DA009030DB004101CE
:1001B00053084001DD00410152084001DC00C2301B
:1001C0008E316026803103304001E7006708F3007C
:1001D000C230E8006808F40002308F311027803107
:1001E00001304101D2070030D33D003053020D30C1
:1001F00003195202031CFD28FE28B328A528A528B0
:10020000A52880310228FA01F71F07290829152996
:10021000F409F509F609F709F40A0319F50A0319AF
:10022000F60A0319F70AFA01FA0AF31F182919291D
:100230002529F009F109F209F309F00A0319F10A75
:100240000319F20A0319F30A2529730872047104C9
:10025000700403192C292D296C29F901F90A3C296C
:100260000130F035F10DF20DF30D890B312901301C
:10027000F8007808F9073C29F31F3F294029302965
:100280004229422973087702031D50297208760219
:10029000031D502971087502031D5029700874024E
:1002A000031C532954295D297008F4027108F53B99
:1002B0007208F63B7308F73B5D290130F336F20C08
:1002C000F10CF00C890B5E290130F902031D69293C
:1002D0006A2942296C296C297A0803197029712925
:1002E0007D29F409F509F609F709F40A0319F50A55
:1002F0000319F60A0319F70A7D297708F30076082F
:10030000F2007508F1007408F00086290800F20078
:1003100040018E110E117208F0000730F036890B83
:100320008E2970080139F100F10CF10C0F087106EB
:100330007F3971068F007208F0000630F036890BA5
:100340009E2970080139F100F10EF10DF10D0F0831
:100350007106BF3971068F007208F0000530F03663
:10036000890BAF2970080139F100F10EF10D0F086A
:100370007106DF3971068F007208F0000430F03624
:10038000890BBF2970080139F100F10E0F087106C1
:10039000EF3971068F000330890BCC290000400132
:1003A0008E150D30890BD229000040018E11720884
:1003B000F0000330F036890BDA2970080139F100BA
:1003C000F10CF10C0F0871067F3971068F0072086D
:1003D000F0000230F036890BEA2970080139F1008B
:1003E000F10EF10DF10D0F087106BF3971068F0086
:1003F00072360139F000F00EF00D0F087006DF398B
:1004000070068F0072080139F000F00E0F087006B8
:10041000EF3970068F000330890B0C2A0000400171
:100420008E150D30890B122A000040018E113A30D2
:10043000F0002330890B1A2AF00B1A2A000008005A
:100440004001A101F31F252A262A332AF009F109C8
:10045000F209F309F00A0319F10A0319F20A031960
:10046000F30AA101A10AF71F362A372A472AF409FD
:10047000F509F609F709F40A0319F50A0319F60A4A
:100480000319F70A0130F8007808A106472A00305E
:10049000A5000030A4000030A3000030A2007308C3
:1004A0007204710470040319562A572A9E2AA00167
:1004B000A00A662A0130F035F10DF20DF30D890B1B
:1004C0005B2A0130F8007808A007662AF31F692A22
:1004D0006A2A5A2A6C2A6C2A0130A235A30DA40D6F
:1004E000A50D890B6D2A73087702031D812A7208F6
:1004F0007602031D812A71087502031D812A700886
:100500007402031C842A852A8F2A7008F402710859
:10051000F53B7208F63B7308F73B22148F2A013033
:10052000F336F20CF10CF00C890B902A0130A0028A
:10053000031D9B2A9C2A6C2A9E2A9E2A21080319A5
:10054000A22AA32AAF2AA209A309A409A509A20ADB
:100550000319A30A0319A40A0319A50AAF2A250837
:10056000F3002408F2002308F1002208F000B82A62
:100570000800F20040018E110E157208F0000730DD
:10058000F036890BC02A70080139F100F10CF10C2A
:100590000F0871067F3971068F007208F00006306F
:1005A000F036890BD02A70080139F100F10EF10DF7
:1005B000F10D0F087106BF3971068F007208F00047
:1005C0000530F036890BE12A70080139F100F10E8F
:1005D000F10D0F087106DF3971068F007208F00007
:1005E0000430F036890BF12A70080139F100F10E60
:1005F0000F087106EF3971068F000330890BFE2A50
:10060000000040018E150D30890B042B00004001C5
:100610008E117208F0000330F036890B0C2B700835
:100620000139F100F10CF10C0F0871067F397106E8
:100630008F007208F0000230F036890B1C2B700816
:100640000139F100F10EF10DF10D0F087106BF39FE
:1006500071068F0072360139F000F00EF00D0F08B0
:100660007006DF3970068F0072080139F000F00E55
:100670000F087006EF3970068F000330890B3E2B90
:10068000000040018E150D30890B442B0000400105
:100690008E110D30890B4A2B00003A30F0002330C8
:1006A000890B502BF00B502B0000080040019413D5
:1006B000141394121412931113118F130F138F121A
:1006C0000F128E110E113A30F3002330890B662B76
:1006D000F30B662B00003A30F3002330890B6E2BAE
:1006E000F30B6E2B00003A30F3002330890B762B8E
:1006F000F30B762B00003A30F3002330890B7E2B6E
:10070000F30B7E2B00003A30F3002330890B862B4D
:10071000F30B862B00003A30F3002330890B8E2B2D
:10072000F30B8E2B0000F401F40A04307402031C56
:100730009A2B9B2B9D2BC72BC72B40018F130F137D
:100740008F160F168E110E118F130F138F160F1693
:100750008E150E110D30890BAB2B000040018F134D
:100760000F138F160F168E110E113A30F30023302F
:10077000890BB82BF30BB82B00000130F300730882
:10078000F40704307402031CC62BC72B9D2B4001B9
:100790008F130F138F160F128E110E118F130F134D
:1007A0008F160F128E150E110D30890BD52B0000F0
:1007B00040018F130F138F160F128E110E113A3046
:1007C000F3002330890BE22BF30BE22B00002830DF
:1007D000F3007308F40074088131872183311030ED
:1007E000F3007308F4007408813187218331F40128
:1007F000F40A74088131872183310F30F3007308C4
:10080000F400740881318721833108004001A70179
:10081000A801A001A101112C0130F6070030F73D1D
:10082000112CA601A60A760884007708850012001C
:10083000203A03191C2C1D2C332C760884007708D1
:1008400085000008F73EF800FF3003180030F9007B
:1008500000307902053003197802031C302C312C4A
:10086000332CA601332C2608F800F9017808A200E1
:100870007908A3004F2C76088400770885000008CB
:10088000F800F9017808F0007908F10080310420BF
:10089000843171084001A3007008A2004F2C220887
:1008A0002304031D542C552C0C2C612C612C01307D
:1008B0004001A0000030A1000130F6070030F73DF4
:1008C0009E2C76088400770885000008F800F9015E
:1008D0007908003A03196D2C9E2C78082B3A0319DD
:1008E0005C2C063A0319572C9E2C9E2C760884000B
:1008F000770885000008D03EF800FF30031800306C
:10090000F900F809F909F80A0319F90A4001280859
:10091000F1002708F0000A30F2000030F3008E31B9
:100920003E268431780870074001A7007908713DA0
:10093000A8000130F6070030F73D9E2C76088400B1
:10094000770885000008D03EF800FF30031800301B
:10095000F900003079020A3003197802031CB12C27
:10096000B32C0130B42C0030FA00FB017A084001AE
:10097000A4007B08A500D02C7608840077088500A9
:100980000008F800F9017808F0007908F1008E31CC
:100990000826843171084001A5007008A400D02CFD
:1009A00024082504031DD52CD62C762CD72C200802
:1009B0002104031DDC2CDD2CE92C2709F800280973
:1009C000F900F80A0319F90A7808F6007908F7001F
:1009D000EF2C2808F7002708F600EF2CEF2C080072
:1009E0004001B4002F08BE002E08BD002D08BC0039
:1009F0002C08BB00BE1BFD2CFF2C0130002D00304D
:100A0000B000B1013008B9003108BA0039083A0421
:100A100003190B2D0C2D172DBB09BC09BD09BE09EF
:100A2000BB0A0319BC0A0319BD0A0319BE0AEC1B51
:100A30001A2D1B2D1F2DFD30ED05FF30EE056C0826
:100A4000803AB00080303002031D282D01306B0247
:100A500003182B2D2C2D322D01304001B500003014
:100A6000B600372D40016C08B6006B08B5006A0867
:100A7000B8006908B70039083A04031D402D412D1C
:100A8000462D6D1D442D452D4A2D462DFF30B707AF
:100A9000FF30B83D1F30BF000030C0003F08A23E0D
:100AA000860087018101A22DFF304001BF07FF3082
:100AB000C03D0030F3000030F2000030F1000A3099
:100AC000F0003E08F7003D08F6003C08F5003B0842
:100AD000F4008131032184317108FC007008FB00AF
:100AE0008E31212684317B08303E4001B0003F0822
:100AF000A23E8600870130088100FF30B507FF3035
:100B0000B63DFF30B707FF30B83D0030F30000308E
:100B1000F2000030F1000A30F0003E08F7003D0816
:100B2000F6003C08F5003B08F400823120228431B5
:100B300073084001BE007208BD007108BC00700857
:100B4000BB00A22D4008803AB00080303002031D67
:100B5000AB2D01303F02031CAE2DAF2DDB2D40012C
:100B60003E083D043C043B04031DB72DB82D542D15
:100B70003608803AB00080303002031DC12D0130AC
:100B800035020318C42DC52D542D40013808803A74
:100B9000B00080303002031DCF2D01303702031C1E
:100BA000D22DD32DDB2D4001ED18D72DD82D542D6E
:100BB000DB2DDB2DDB2D400139083A04031DE12D2F
:100BC000E22DE72D6D1DE52DE62D042EE72DFF30DE
:100BD000BF07FF30C03D39083A04031DF02DF12D49
:100BE000F62D2B30B2000030B300FB2D2D30B200BB
:100BF0000030B300FB2D3208B0003F08A23E860053
:100C0000870130088100042E3F08A23EB000300862
:100C1000A4003808A6003708A50034088031272032
:100C2000843140012508AD002408AC00172E0800CF
:100C30004001D100410886008701403FC300413F89
:100C4000C40043088400440885001200253A031DAF
:100C50002A2E2B2EC62F41088600870101308107DE
:100C600041310318810AE901EA01ED01EE01FF308B
:100C7000EB00FF30EC00CD01CE019C2E772E6D14E1
:100C80004108860087010130810741310318810A3C
:100C90009C2EED1441088600870101308107413107
:100CA0000318810A9C2E6D154108860087010130CA
:100CB000810741310318810A9C2EED1541088600F9
:100CC00087010130810741310318810A9C2E6D167E
:100CD0004108860087010130810741310318810AEC
:100CE0009C2E0130CD000030CE009C2E9C2E410861
:100CF00086008701403FC300413FC4004308840091
:100D0000440885000008C500C6014608003A0319DA
:100D10008A2E712E4508203A03195D2E033A0319D5
:100D2000672E083A0319532E063A03193F2E1D3A2F
:100D30000319492E712E9C2E4D084E040319A12E25
:100D4000A22E772E6D1CA52EA62EAB2EFD30ED0506
:100D5000FF30EE05AB2E410886008701403FC300FF
:100D6000413FC400430884004408850012002A3A29
:100D7000031DBB2EBC2EDC2E4108860087010130EE
:100D8000810741310318810A420886008701010862
:100D90008400850102308107003FE900013FEA003D
:100DA000EA1FD32ED42E3C2F6D14E909EA09E90A73
:100DB0000319EA0A3C2F3C2F410886008701403F77
:100DC000F600413FF7008431062486317708400160
:100DD000EA007608E900F52E410886008701013017
:100DE000810741310318810AF52E410886008701E9
:100DF000403FC300413FC4004308840044088500CD
:100E00000008D03EC500FF3003180030C600003097
:100E100046020A3003194502031C0F2F112F01301F
:100E2000122F0030C700C8014708CF004808D00083
:100E3000342F410886008701403FC300413FC40072
:100E400043088400440885000008C500C601450821
:100E5000F0004608F1008E31082686317108400105
:100E6000D0007008CF00342F4F085004031D392FD5
:100E70003A2FEC2E3C2F3C2F410886008701403F43
:100E8000C300413FC40043088400440885001200A9
:100E9000643A03194C2F4D2F5F2F410886008701BC
:100EA000403FC300413FC40043088400440885001C
:100EB0001200693A031D5D2F5E2F8F2F5F2F4108AF
:100EC000860087010130810741310318810A4208F9
:100ED0008600870101088400850102308107003FF8
:100EE000C300013FC4004308C9004408CA00890D7B
:100EF000893B8909CB00CC004C08AF004B08AE0001
:100F00004A08AD004908AC0051088431F02486310C
:100F100040012D08C2002C08C100ED2FED2F410823
:100F200086008701403FC300413FC400430884005E
:100F3000440885001200253A031D9F2FA02FBA2FC9
:100F40004108860087010130810741310318810A79
:100F50002530F0000030F1005108C3004308F200D2
:100F60008F31AC27863101304001C1000030C20012
:100F7000ED2FED2F410886008701013081074131B7
:100F80000318810AC101C201ED2FED2F410886002F
:100F90008701403FC300413FC40043088400440828
:100FA00085000008C500C6014508F0004608F100AC
:100FB0005108C7004708F2008F31AC278631400145
:100FC0004108860087010130810741310318810AF9
:100FD0000130C1000030C200ED2F08004001E901DE
:100FE000EA01EB01EC01ED01EE01A03084000030DC
:100FF000850022308E3102268731400180318128E0
:101C02000800640080010131890B032E0034700842
:101C1200D03EF200FF30713DF300003073020A3013
:101C220003197202031C162E182E0130192E0030D1
:101C3200F400F5017408F0007508F100202E080088
:101C42007C08803A4001A00080302002031D2B2E28
:101C520001307B0203182E2E2F2E3C2E7B094001D1
:101C6200A0007C09A100A00A0319A10A2008FB0018
:101C72002108FC003D2E3D2E0800F401F501412E05
:101C8200701C442E452E492E7208F4077308F53D48
:101C92000130F235F30D890B4A2E0130F136F00C8A
:101CA200890B4F2E70087104031D582E592E412E98
:101CB2005A2E7508F1007408F0005F2E08004001EA
:101CC200E1005C30FD007D08E0006108FD007D0858
:101CD200E200E301E401E501E6015B08D3005A08F2
:101CE200D2006030FD007D08D40062308E31DB26E8
:101CF2008E3140015308DF005208DE00630861079D
:101D0200FD007D08860087018101872E0800F7000B
:101D12007708F2007208F600932E0130F200720882
:101D2200F707932E7708860087010108031D9A2E74
:101D32009B2E8E2E9C2E7608F2000030F300F209C4
:101D4200F309F20A0319F30A7708F4000030F500E8
:101D520072087407F0007308753DF100B02E080098
:101D62004001A300A101A201CA2E2008F900FA0134
:101D72007908F0007A08F1007808FB007B08F2008D
:101D82008F31AC278E3101304001A1070030A23DD6
:101D9200CA2E21082307F900790886008701010865
:101DA200FA007A08A0002008031DD82ED92EB62EDC
:101DB200DA2E08004001D7005308D9005208D80093
:101DC2004101A001A101FB2E58304001D500550868
:101DD200C1005408D6005608C2005708863118269A
:101DE2008E31400141084101A007400142084101F2
:101DF200A13DFB2E400158088400590885001200BD
:101E0200031D042F052FE52E062F41012108400155
:101E1200D300410120084001D2000F2F0800F70033
:101E22002C2F7308803EF5007508F800422F7308C6
:101E3200C03EF5007508F800422F7308943EF50085
:101E42007508F800422F7308D43EF5007508F800B3
:101E5200422F422F422F7708F500F6017608003A0A
:101E62000319342F422F7508013A0319122F033A2E
:101E72000319182F013A03191E2F073A0319242FA9
:101E8200422F7808813187218F31532F74088600C1
:101E9200870101088231B9228F310130F5007508BE
:101EA200F407532F7408860087010108031D5A2F77
:101EB2005B2F472F5C2F0800F800792F7308803EB4
:101EC200F6007608F9008F2F7308C03EF6007608F8
:101ED200F9008F2F7308943EF6007608F9008F2FD1
:101EE2007308D43EF6007608F9008F2F8F2F8F2FBC
:101EF2007808F600F7017708003A0319812F8F2F2F
:101F02007608013A03195F2F033A0319652F013A44
:101F120003196B2F073A0319712F8F2F790881311B
:101F220087218F31A12F740884007508850000086D
:101F32008231B9228F310130F4070030F53DA12FF3
:101F420074088400750885001200031DA92FAA2FAA
:101F5200942FAB2F080072080319B02FB12FB72F9F
:101F62007208031DB52FB62FBC2FB72F70088E3104
:101F720001268F31FF2F7208033E8600870116006B
:101F820001040319C52FC62FE42F7208033E8600F1
:101F92008701403FF300413FF400720A8600870147
:101FA200403FF500413FF6007608803AF70074089A
:101FB200803A7702031DDF2F730875020318E22FA0
:101FC200E32FFF2FE42F7008F300720886008701C9
:101FD200720A8400850100080107F4007408860073
:101FE200870173088100720A860087010130810728
:101FF20041310318810AFF2FFF2FFF2F08004334BE
:10200200753465346E34743461343A342034253492
:1020120030343334643400344D34653463346134E1
:10202200743472346F346E3469346334613400341E
:020000040001F9
:0A000E008C3FFD3F9F3FFF3FFF3F87
:00000001FF
